:020000040800F2
:1000000000000220756F00080D6D0008156D0008D6
:100010001D6D0008256D00082D6D00080000000012
:1000200000000000000000000000000041EA00089D
:10003000356D00080000000091EC0008436D0008D9
:10004000C56F0008C56F0008C56F0008C56F0008C0
:10005000C56F00085D6D0008C56F0008C56F00081A
:10006000C56F0008C56F0008C56F0008C56F0008A0
:10007000C56F0008C56F0008C56F0008C56F000890
:10008000C56F0008C56F00086D6D0008C56F0008DA
:10009000C56F0008C56F0008C56F0008C56F000870
:1000A000C56F0008C56F0008C56F0008896D00089E
:1000B000C56F0008C56F00089D6D0008C56F00087A
:1000C000C56F0008C56F0008C56F0008C56F000840
:1000D000C56F0008C56F0008C56F0008B16D000846
:1000E000C56F0008C56F0008C56F0008C56F000820
:1000F000C56F0008C56F0008C56F0008C56F000810
:10010000C56F0008C56F0008C56F0008C56F0008FF
:10011000C56F0008C56F0008C56F0008C56F0008EF
:10012000C56F0008C56F0008C56F0008C56F0008DF
:10013000C56F0008C56F0008C56F0008C56F0008CF
:10014000C56F0008C56F0008C56F0008C56F0008BF
:10015000C56F0008C56F0008C56F0008C56F0008AF
:10016000C56F0008C56F0008C56F0008C56F00089F
:10017000C56F0008C56F0008C56F000800000000CB
:08018000C56F0008C56F0008FF
:1001900010B5054C237833B9044B13B10448AFF3C1
:1001A00000800123237010BD180300200000000010
:1001B000A82C010808B5034B1BB103490348AFF352
:1001C000008008BD000000001C030020A82C0108CE
:1001D00001F0FF01102A2BDB10F0070F08D010F8F8
:1001E000013B013A8B422DD010F0070F42B3F6D1FC
:1001F000F0B441EA012141EA014122F007047FF015
:1002000000070023F0E80256083C85EA010586EA6B
:10021000010685FA47F5A3FA87F586FA47F6A5FAA7
:1002200087F68EB9EED1F0BC01F0FF0102F00702B3
:1002300032B110F8013B013A83EA010313B1F8D15E
:100240000020704701387047002D06BF354603383F
:10025000073815F0010F07D1013015F4807F02BF78
:10026000013015F4C03F0130F0BC0138704700BFC9
:10027000034613F8012B002AFBD1181A01387047E6
:1002800081F0004102E000BF83F0004330B54FEA47
:1002900041044FEA430594EA050F08BF90EA020FB4
:1002A0001FBF54EA000C55EA020C7FEA645C7FEA47
:1002B000655C00F0E2804FEA5454D4EB5555B8BF6A
:1002C0006D420CDD2C4480EA020281EA030382EADB
:1002D000000083EA010180EA020281EA0303362D6D
:1002E00088BF30BD11F0004F4FEA01314FF4801C40
:1002F0004CEA113102D0404261EB410113F0004F52
:100300004FEA03334CEA133302D0524263EB430308
:1003100094EA050F00F0A780A4F10104D5F1200EA6
:100320000DDB02FA0EFC22FA05F2801841F1000101
:1003300003FA0EF2801843FA05F359410EE0A5F1D5
:1003400020050EF1200E012A03FA0EFC28BF4CF006
:10035000020C43FA05F3C01851EBE37101F00045BC
:1003600007D54FF0000EDCF1000C7EEB00006EEBC9
:100370000101B1F5801F1BD3B1F5001F0CD3490853
:100380005FEA30004FEA3C0C04F101044FEA4452AA
:1003900012F5800F80F09A80BCF1004F08BF5FEA31
:1003A000500C50F1000041EB045141EA050130BD11
:1003B0005FEA4C0C404141EB0101013C28BFB1F523
:1003C000801FE9D291F0000F04BF01460020B1FA6E
:1003D00081F308BF2033A3F10B03B3F120020CDA41
:1003E0000C3208DD02F1140CC2F10C0201FA0CF01F
:1003F00021FA02F10CE002F11402D8BFC2F1200C84
:1004000001FA02F120FA0CFCDCBF41EA0C01904039
:10041000E41AA2BF01EB0451294330BD6FEA040482
:100420001F3C1CDA0C340EDC04F11404C4F120026D
:1004300020FA04F001FA02F340EA030021FA04F37F
:1004400045EA030130BDC4F10C04C4F1200220FAD6
:1004500002F001FA04F340EA0300294630BD21FA14
:1004600004F0294630BD94F0000F83F4801306BFDA
:1004700081F480110134013D4EE77FEA645C18BFCE
:100480007FEA655C29D094EA050F08BF90EA020F65
:1004900005D054EA000C04BF1946104630BD91EA5D
:1004A000030F1EBF0021002030BD5FEA545C05D160
:1004B0004000494128BF41F0004130BD14F580049F
:1004C0003CBF01F5801130BD01F0004545F0FE4113
:1004D00041F470014FF0000030BD7FEA645C1ABF48
:1004E000194610467FEA655C1CBF0B46024650EA7F
:1004F000013406BF52EA033591EA030F41F40021AB
:1005000030BD00BF90F0000F04BF0021704730B530
:100510004FF4806404F132044FF000054FF0000105
:1005200050E700BF90F0000F04BF0021704730B5C6
:100530004FF4806404F1320410F0004548BF40429B
:100540004FF000013EE700BF42004FEAE2014FEAF0
:1005500031014FEA02701FBF12F07F4393F07F4FCB
:1005600081F06051704732F07F4208BF704793F0CE
:100570007F4F04BF41F40021704730B54FF46074E1
:1005800001F0004521F000411CE700BF50EA0102E4
:1005900008BF704730B54FF000050AE050EA01028D
:1005A00008BF704730B511F0004502D5404261EBFD
:1005B00041014FF4806404F132045FEA915C3FF43E
:1005C000D8AE4FF003025FEADC0C18BF03325FEADB
:1005D000DC0C18BF033202EBDC02C2F1200300FA8C
:1005E00003FC20FA02F001FA03FE40EA0E0021FAB1
:1005F00002F11444BDE600BF70B54FF0FF0C4CF49F
:10060000E06C1CEA11541DBF1CEA135594EA0C0F50
:1006100095EA0C0F00F0DEF82C4481EA030621EA8B
:100620004C5123EA4C5350EA013518BF52EA0335C6
:1006300041F4801143F4801338D0A0FB02CE4FF078
:100640000005E1FB02E506F00042E0FB03E54FF0A8
:100650000006E1FB03569CF0000F18BF4EF0010EA0
:10066000A4F1FF04B6F5007F64F5407404D25FEA9C
:100670004E0E6D4146EB060642EAC62141EA55514F
:100680004FEAC52040EA5E504FEACE2EB4F1FD0C91
:1006900088BFBCF5E06F1ED8BEF1004F08BF5FEA0F
:1006A000500E50F1000041EB045170BD06F00046C1
:1006B00046EA010140EA020081EA0301B4EB5C046E
:1006C000C2BFD4EB0C0541EA045170BD41F4801166
:1006D0004FF0000E013C00F3AB8014F1360FDEBF8B
:1006E000002001F0004170BDC4F10004203C35DA67
:1006F0000C341BDC04F11404C4F1200500FA05F3EA
:1007000020FA04F001FA05F240EA020001F000428A
:1007100021F0004110EBD37021FA04F642EB060100
:100720005EEA430E08BF20EAD37070BDC4F10C042A
:10073000C4F1200500FA04F320FA05F001FA04F2EE
:1007400040EA020001F0004110EBD37041F10001DA
:100750005EEA430E08BF20EAD37070BDC4F12005E5
:1007600000FA05F24EEA020E20FA04F301FA05F24D
:1007700043EA020321FA04F001F0004121FA04F2F5
:1007800020EA020000EBD3705EEA430E08BF20EAC5
:10079000D37070BD94F0000F0FD101F000464000FF
:1007A00041EB010111F4801F08BF013CF7D041EA81
:1007B000060195F0000F18BF704703F00046520085
:1007C00043EB030313F4801F08BF013DF7D043EA56
:1007D0000603704794EA0C0F0CEA135518BF95EA0C
:1007E0000C0F0CD050EA410618BF52EA4306D1D193
:1007F00081EA030101F000414FF0000070BD50EAB2
:10080000410606BF1046194652EA430619D094EA3B
:100810000C0F02D150EA013613D195EA0C0F05D125
:1008200052EA03361CBF104619460AD181EA030179
:1008300001F0004141F0FE4141F470014FF0000031
:1008400070BD41F0FE4141F4780170BD70B54FF0CC
:10085000FF0C4CF4E06C1CEA11541DBF1CEA13554C
:1008600094EA0C0F95EA0C0F00F0A7F8A4EB05042E
:1008700081EA030E52EA03354FEA013100F0888025
:100880004FEA03334FF0805545EA131343EA1263EE
:100890004FEA022245EA111545EA10654FEA0026A3
:1008A0000EF000419D4208BF964244F1FD0404F55C
:1008B000407402D25B084FEA3202B61A65EB0305B8
:1008C0005B084FEA32024FF480104FF4002CB6EB75
:1008D000020E75EB030E22BFB61A754640EA0C00F5
:1008E0005B084FEA3202B6EB020E75EB030E22BF35
:1008F000B61A754640EA5C005B084FEA3202B6EB76
:10090000020E75EB030E22BFB61A754640EA9C0034
:100910005B084FEA3202B6EB020E75EB030E22BF04
:10092000B61A754640EADC0055EA060E18D04FEAC2
:10093000051545EA16754FEA06164FEAC30343EA62
:1009400052734FEAC2025FEA1C1CC0D111F4801F2F
:100950000BD141EA00014FF000004FF0004CB6E728
:1009600011F4801F04BF01430020B4F1FD0C88BFC7
:10097000BCF5E06F3FF6AFAEB5EB030C04BFB6EBD2
:10098000020C5FEA500C50F1000041EB045170BDC5
:100990000EF0004E4EEA113114EB5C04C2BFD4EBF2
:1009A0000C0541EA045170BD41F480114FF0000E76
:1009B000013C90E645EA060E8DE60CEA135594EAF2
:1009C0000C0F08BF95EA0C0F3FF43BAF94EA0C0FF5
:1009D0000AD150EA01347FF434AF95EA0C0F7FF46A
:1009E00025AF104619462CE795EA0C0F06D152EABE
:1009F00003353FF4FDAE1046194622E750EA4106A2
:100A000018BF52EA43067FF4C5AE50EA41047FF4B2
:100A10000DAF52EA43057FF4EBAE12E74FF0FF3C17
:100A200006E000BF4FF0010C02E000BF4FF0010CE8
:100A30004DF804CD4FEA410C7FEA6C5C4FEA430C61
:100A400018BF7FEA6C5C1BD001B050EA410C0CBFB0
:100A500052EA430C91EA030F02BF90EA020F002012
:100A6000704710F1000F91EA030F58BF994208BF79
:100A700090422CBFD8176FEAE37040F00100704736
:100A80004FEA410C7FEA6C5C02D150EA013C07D18D
:100A90004FEA430C7FEA6C5CD6D152EA033CD3D0D8
:100AA0005DF8040B704700BF8446104662468C46D2
:100AB0001946634600E000BF01B5FFF7B7FF002805
:100AC00048BF10F1000F01BD4DF808EDFFF7F4FF2E
:100AD0000CBF012000205DF808FB00BF4DF808EDB9
:100AE000FFF7EAFF34BF012000205DF808FB00BFDC
:100AF0004DF808EDFFF7E0FF94BF012000205DF8FE
:100B000008FB00BF4DF808EDFFF7CEFF94BF0120B2
:100B100000205DF808FB00BF4DF808EDFFF7C4FFAB
:100B200034BF012000205DF808FB00BF4FEA410CF4
:100B30007FEA6C5C02D150EA013C0AD14FEA430CD7
:100B40007FEA6C5C02D152EA033C02D14FF0000014
:100B500070474FF0010070474FEA410212F5001252
:100B600015D211D56FF47873B3EB625212D94FEAF4
:100B7000C12343F0004343EA505311F0004F23FADE
:100B800002F018BF404270474FF00000704750EA33
:100B9000013005D111F0004008BF6FF000407047F0
:100BA0004FF00000704700BF4A0011D212F500124A
:100BB00011D20DD56FF47873B3EB62520ED44FEAB5
:100BC000C12343F0004343EA505323FA02F0704735
:100BD0004FF00000704750EA013002D14FF0FF3073
:100BE00070474FF0000070474FEA4102B2F1E04316
:100BF00024BFB3F5001CDCF1FE5C0DD901F0004C04
:100C00004FEAC0024CEA5070B2F1004F40EB830053
:100C100008BF20F00100704711F0804F21D113F17F
:100C20003872BCBF01F00040704741F480114FEAB8
:100C30005252C2F11802C2F1200C10FA0CF320FA41
:100C400002F018BF40F001004FEAC1234FEAD3235E
:100C500003FA0CFC40EA0C0023FA02F34FEA4303C8
:100C6000CCE77FEA625307D150EA01331EBF4FF051
:100C7000FE4040F44000704701F0004040F0FE406C
:100C800040F40000704700BF53B94AB9002908BFBB
:100C900000281CBF4FF0FF314FF0FF3000F06AB961
:100CA000ADF1080C6DE904CE00F006F8DDF804E0C3
:100CB000DDE9022304B070472DE9F047089D0C469A
:100CC000002B4ED194468C458646B2FA82F262D908
:100CD0004AB1C2F12003914020FA03F30CFA02FC5E
:100CE000194300FA02FE4FEA1C471FFA8CF6B1FBCB
:100CF000F7F44FEA1E4307FB141143EA014304FBD8
:100D000006F199420AD91CEB030304F1FF3080F08D
:100D10001281994240F20F81023C6344591A1FFA32
:100D20008EF3B1FBF7F007FB101143EA014300FB20
:100D300006F69E420AD91CEB030300F1FF3180F056
:100D4000FC809E4240F2F980634402389B1B40EADB
:100D5000044000211DB1D3400022C5E90032BDE8A6
:100D6000F0878B4205D90DB1C5E900010021084685
:100D7000F5E7B3FA83F1002946D1A34202D39042AA
:100D8000C0F0F080861A64EB03030120002DE6D04A
:100D9000C5E90063E3E7002A40F09080A1EB0C0472
:100DA0004FEA1C481FFA8CF70121B4FBF8F64FEA12
:100DB0001E4308FB164443EA044307FB06F098422F
:100DC00008D91CEB030306F1FF3402D2984200F26B
:100DD000CD8026461C1A1FFA8EF3B4FBF8F008FBF0
:100DE000104443EA044300FB07F79F4208D91CEB79
:100DF000030300F1FF3402D29F4200F2B08020468C
:100E0000DB1B40EA0640A5E7C1F120068B4022FA31
:100E100006F71F4320FA06FC04FA01F343EA0C0329
:100E2000F44000FA01F8380C4FEA1349B4FBF0FE25
:100E30001FFA87FC00FB1E4449EA04440EFB0CF930
:100E4000A14502FA01F20AD93C190EF1FF3A80F0ED
:100E50008480A14540F28180AEF1020E3C44A4EBB7
:100E600009041FFA83F9B4FBF0F300FB134449EAC9
:100E7000044403FB0CFCA44507D93C1903F1FF30E3
:100E800067D2A44565D9023B3C4443EA0E40A0FB2F
:100E90000293A4EB0C049C42CE469C4651D34ED008
:100EA00055B1B8EB0E0364EB0C0404FA06F6CB4024
:100EB0001E43CC40C5E90064002150E7C2F1200385
:100EC00020FA03F10CFA02FC24FA03F394400C43D9
:100ED0004FEA1C4800FA02FE1FFA8CF7B3FBF8F049
:100EE00008FB1031230C43EA014300FB07F1994250
:100EF00008D91CEB030300F1FF362CD299422AD902
:100F0000023863445B1AA4B2B3FBF8F108FB113357
:100F100044EA034401FB07F3A34208D91CEB040491
:100F200001F1FF3613D2A34211D902396444E41A05
:100F300041EA004139E70446F0E6084606E7C845BD
:100F4000AED2B9EB020E63EB070C0138A8E73146CD
:100F5000EDE7034699E73046D4E7D6467FE763449A
:100F600002384DE70646234608460FE7023E634433
:100F700030E700BF704700BF80B58AB004AFF860AB
:100F80000B467A60FB720023FB757B68DBB21B01AA
:100F9000DBB27B75FB7A002B01D1682300E069236B
:100FA000BB75BB7D9BB25B0099B20A230293012300
:100FB000019307F11503009301237F22F86807F0DE
:100FC0006FFA0346FB75FB7D18461837BD4680BD9A
:100FD00080B588B004AF7860084611461A460346CB
:100FE000FB700B46BB7013467B700023FB73FB78D2
:100FF000002B01D1682300E06923BB73BB7B9BB24C
:101000005B0099B2BB789AB20A2302930123019341
:101010007B1C00930123786807F042FA0346FB73B8
:10102000FB7B18461037BD4680BD80B584B000AF4D
:1010300078600B46FB701346BB700023FB73FB7894
:10104000002219467868FFF797FF0346FB73F9788B
:10105000802306227868FFF7BBFF0346FB73C82096
:1010600006F024F8F978012306227868FFF7B0FF2C
:101070000346FB73F978382307227868FFF7A8FF47
:101080000346FB73FB78022219467868FFF774FF6A
:101090000346FB73BB785B005BB243F019035BB2A2
:1010A000DBB2F97801227868FFF792FF0346FB7301
:1010B000F978042300227868FFF78AFF0346FB7360
:1010C000FB78002219467868FFF756FF0346FB734A
:1010D000F97802230F227868FFF77AFF0346FB7343
:1010E00000BF1037BD4680BD80B582B000AF05F0AF
:1010F0006BFF00F065F900F043FD00F06DFC00F0BF
:1011000035FC00F02DFB00F011FD00F089FA00F035
:101110007BFB00F057FA00F0B1F900F0C9FB00F0DA
:10112000FFF905F057FA032200216C48FFF77DFF15
:101130006B4B64221A706A4B00225A80694B002262
:101140001A70684B00225A70674B1A78654B9A7078
:1011500000237B600CE064233B7000237B80614AAA
:101160007B689B0013443A685A607B6801337B605C
:101170005D4B1B781A467B689342ECDB9FED5B1A54
:10118000DFED5B0AB0EE040A5A4801F0C1F99FEDA9
:10119000581ADFED570AB0EE040A574801F0B8F9C3
:1011A0009FED531ADFED520AB7EE080A534801F0DB
:1011B000AFF9534B1B781A46524953480AF0CBFA01
:1011C0000C21524808F010FD0021514808F00CFD98
:1011D00004214F4808F008FD3C214E4809F098F8DA
:1011E0004A4B1B6846221A644FF4967005F05EFF66
:1011F0000BF07EFA484A002148480BF0C3FA034638
:10120000474A1360474A002147480BF0BBFA0346A0
:10121000464A1360464A002146480BF0B3FA03469B
:10122000454A1360454A002145480BF0ABFA034696
:10123000444A1360444A002144480BF0A3FA034691
:10124000434A1360434A002143480BF09BFA03468C
:10125000424A1360424A002142480BF093FA034687
:10126000414A1360414A002141480BF08BFA034682
:10127000404A1360404A002140480BF083FA03467D
:101280003F4A13603F4A00213F480BF07BFA034678
:101290003E4A13603E4A00213E480BF073FA034673
:1012A0003D4A13603D4A00213D480BF06BFA03466E
:1012B0003C4A13603C4A00213C480BF063FA034669
:1012C0003B4A13603B4A00213B480BF05BFA034664
:1012D0003A4A13600BF030FA00BFFDE7C403002068
:1012E000840600205006002001000020CDCC4C3F99
:1012F00000000000D0060020BC060020E40600200C
:101300000000002044060020C8050020180400202A
:101310008005002060040020E42D0108213D000824
:101320000C060020082E0108F13D000810060020E0
:101330002C2E01083143000814060020502E01080D
:101340001144000818060020742E01088946000880
:101350001C060020982E0108D94B0008200600200A
:10136000BC2E0108D54C000824060020E02E010800
:10137000D150000828060020042F0108CD54000891
:101380002C060020282F0108C9580008300600202C
:101390004C2F0108C95C000834060020702F01089A
:1013A0001161000838060020942F01088D610008A3
:1013B0003C060020B82F0108096000084006002004
:1013C00080B594B000AF07F1200330220021184609
:1013D0000EF04BFD07F10C0300221A605A609A6070
:1013E000DA601A610023BB60224B1B6C214A43F078
:1013F000805313641F4B1B6C03F08053BB60BB68AE
:1014000000237B601C4B1B681B4A43F48043136022
:10141000194B1B6803F480437B607B6802233B62AB
:101420000123FB6210233B630023BB6307F120030E
:10143000184607F0D9FE0346002B01D004F01EFF2A
:101440000F23FB6000233B6100237B610023BB6112
:101450000023FB6107F10C030021184608F03CF95A
:101460000346002B01D004F009FF00BF5037BD46F2
:1014700080BD00BF003802400070004080B584B0DD
:1014800000AF3B4600221A605A609A60DA60214B36
:10149000214A1A601F4B00225A601E4B00229A609C
:1014A0001C4B00221A611B4B00221A76194B00229A
:1014B00083F82020174B0022DA62164B174A9A62F3
:1014C000144B0022DA60134B0122DA61114B002227
:1014D00083F830200F4B01225A610E4805F00AFEB6
:1014E0000346002B01D004F0C9FE0B233B6001230F
:1014F0007B600023BB603B461946064806F00AF9AC
:101500000346002B01D004F0B9FE00BF1037BD46E2
:1015100080BD00BF34030020002001400100000F07
:1015200080B584B000AF3B4600221A605A609A60D2
:10153000DA60214B214A1A601F4B00225A601E4B71
:1015400000229A601C4B00221A611B4B00221A7663
:10155000194B002283F82020174B0022DA62164B29
:10156000174A9A62144B0022DA60134B0122DA61A7
:10157000114B002283F830200F4B01225A610E4894
:1015800005F0B8FD0346002B01D004F077FE0E23D2
:101590003B6001237B600023BB603B461946064845
:1015A00006F0B8F80346002B01D004F067FE00BF38
:1015B0001037BD4680BD00BF7C03002000210140E4
:1015C0000100000F80B500AF124B134A1A60114B97
:1015D000124A5A600F4B00229A600E4B0022DA60CA
:1015E0000C4B4FF480421A610A4B00225A61094B9E
:1015F00000229A61074B0022DA61064B00221A6230
:10160000044806F009FE0346002B01D004F036FE24
:1016100000BF80BDC403002000540040A08601002C
:1016200080B596B000AF07F1480300221A605A60F7
:101630009A60DA6007F1400300221A605A6007F1ED
:10164000240300221A605A609A60DA601A615A61B3
:101650009A613B1D2022002118460EF006FC3E4BED
:101660003E4A1A603C4B4FF4A0725A603A4B00223B
:101670009A60394B4FF47A72DA60374B00221A6164
:10168000354B00225A61344B80229A61324808F06F
:1016900003FA0346002B01D004F0F0FD4FF4805311
:1016A000BB6407F1480319462B4809F025F90346A6
:1016B000002B01D004F0E2FD274808F03CFA034675
:1016C000002B01D004F0DAFD00233B6400237B648F
:1016D00007F140031946204809F07CFE0346002B21
:1016E00001D004F0CBFD60237B620023BB620023AA
:1016F000FB6200237B630023BB630023FB6307F1D2
:1017000024030C221946144809F034F80346002B30
:1017100001D004F0B3FD00237B600023BB600023F5
:10172000FB6000233B6100237B614FF40053BB61EE
:1017300000233B623B1D1946074809F0C7FE0346DC
:10174000002B01D004F09AFD034805F055FA00BFC4
:101750005837BD4680BD00BF18040020000001407E
:1017600080B58CB000AF07F10C032422002118468D
:101770000EF07BFB3B1D00221A605A60214B4FF09C
:1017800080421A601F4B00225A601E4B00229A6052
:101790001C4B4FF6FF72DA601A4B00221A61194B8C
:1017A00000229A610323FB6000233B6101237B61DC
:1017B0000023BB610A23FB6100233B6201237B62A0
:1017C0000023BB620A23FB6207F10C0319460D4894
:1017D00008F0F8FC0346002B01D004F04FFD002375
:1017E0007B600023BB603B1D1946064809F0F2FDF3
:1017F0000346002B01D004F041FD00BF3037BD4649
:1018000080BD00BF6004002080B58CB000AF07F140
:101810000C032422002118460EF027FB3B1D00225A
:101820001A605A60204B214A1A601F4B00225A60EE
:101830001D4B00229A601C4B4FF6FF72DA601A4B68
:1018400000221A61184B00229A610323FB600023D7
:101850003B6101237B610023BB610A23FB61002301
:101860003B6201237B620023BB620A23FB6207F118
:101870000C0319460C4808F0A5FC0346002B01D0C8
:1018800004F0FCFC00237B600023BB603B1D194679
:10189000054809F09FFD0346002B01D004F0EEFC43
:1018A00000BF3037BD4680BDA804002000040040C2
:1018B00080B586B000AF07F1100300221A605A60AD
:1018C0003B4600221A605A609A60DA60254B264A2D
:1018D0001A60244B0F225A60224B00229A60214B3F
:1018E0004FF6FF72DA601F4B00221A611D4B002277
:1018F0009A611C4808F040FA0346002B01D004F01E
:10190000BDFC00233B6100237B6107F110031946F6
:10191000144809F05FFD0346002B01D004F0AEFC33
:1019200000233B6001237B600023BB600023FB603E
:101930003B46042219460B4808F080FE0346002B64
:1019400001D004F09BFC3B4600221946054808F0F4
:1019500075FE0346002B01D004F090FC00BF183741
:10196000BD4680BDF00400200008004080B582B074
:1019700000AF3B4600221A605A60154B154A1A60A8
:10198000134B00225A60124B00229A60104B4FF604
:10199000FF72DA600E4B00229A610D4808F07CF865
:1019A0000346002B01D004F069FC00233B600023B8
:1019B0007B603B461946064809F00CFD0346002BA8
:1019C00001D004F05BFC00BF0837BD4680BD00BFFE
:1019D000380500200010004080B596B000AF07F138
:1019E000480300221A605A609A60DA6007F14003E7
:1019F00000221A605A6007F1240300221A605A601C
:101A00009A60DA601A615A619A613B1D20220021B6
:101A100018460EF02AFA434B434A1A60414B002203
:101A20005A60404B00229A603E4B41F61F42DA60FA
:101A30003C4B00221A613B4B00225A61394B002279
:101A40009A61384808F028F80346002B01D004F0CA
:101A500015FC4FF48053BB6407F148031946314825
:101A600008F04AFF0346002B01D004F007FC2D4884
:101A700008F061F80346002B01D004F0FFFB0023BF
:101A80003B6400237B6407F140031946254809F0B5
:101A9000A1FC0346002B01D004F0F0FB60237B6225
:101AA0000023BB620023FB6200233B6300237B63B4
:101AB0000023BB630023FB6307F1240300221946C4
:101AC000184808F057FE0346002B01D004F0D6FB5F
:101AD00007F1240304221946124808F04BFE03467E
:101AE000002B01D004F0CAFB00237B600023BB6005
:101AF0000023FB6000233B6100237B614FF4005314
:101B0000BB6100233B623B1D1946064809F0DEFC21
:101B10000346002B01D004F0B1FB00BF5837BD468F
:101B200080BD00BF800500200004014080B500AFEB
:101B3000114B124A1A60104B4FF4E1325A600E4BAF
:101B400000229A600C4B0022DA600B4B00221A61D3
:101B5000094B0C225A61084B00229A61064B002265
:101B6000DA61054809F018FD0346002B01D004F0A6
:101B700085FB00BF80BD00BFC805002000480040B5
:101B800080B58CB000AF07F11C0300221A605A60C8
:101B90009A60DA601A610023BB615B4B1B6B5A4A87
:101BA00043F010031363584B1B6B03F01003BB612E
:101BB000BB6900237B61544B1B6B534A43F080038A
:101BC0001363514B1B6B03F080037B617B69002324
:101BD0003B614D4B1B6B4C4A43F0040313634A4B70
:101BE0001B6B03F004033B613B690023FB60464B26
:101BF0001B6B454A43F001031363434B1B6B03F01C
:101C00000103FB60FB680023BB603F4B1B6B3E4A3C
:101C100043F0020313633C4B1B6B03F00203BB60F6
:101C2000BB6800237B60384B1B6B374A43F00803CB
:101C30001363354B1B6B03F008037B607B6800224A
:101C40004FF4BC61314806F0CDFA00223C21304807
:101C500006F0C8FA00224FF482612E4806F0C2FA5C
:101C600000224FF400512C4806F0BCFA4FF4BC633C
:101C7000FB6101233B6200237B620023BB6207F10F
:101C80001C031946214806F011F93C23FB6101238E
:101C90003B6200237B620223BB6207F11C031946EF
:101CA0001B4806F003F94FF48263FB6101233B629A
:101CB00000237B620023BB6207F11C031946154811
:101CC00006F0F4F84FF48073FB614FF404133B62A9
:101CD00000237B6207F11C0319460F4806F0E6F863
:101CE0004FF40053FB6101233B6200237B6200231E
:101CF000BB6207F11C031946074806F0D7F800BF7E
:101D00003037BD4680BD00BF0038024000100240A1
:101D10000000024000040240000C024080B58AB07E
:101D200000AF786040F6FF7304229249924809F0B0
:101D300080FC904B9B78A3F1300213469B00134428
:101D40005B001A468B4BDB78303B13447B62894B3C
:101D50005B782F2B0CD9874B5B78392B08D8854BB8
:101D60005B78303B642202FB03F37A6A13447B62A4
:101D7000824B00221A707F4B1B78532B59D17D4B1D
:101D80005B78542B55D17E4B1B6800225A637C4BE9
:101D90001B6800229A637B4B1A787B4B1A70794B35
:101DA0000B221A70794B4FF000021A60784B002218
:101DB0001A80784800F0CDFB774800F0CAFB7748DE
:101DC00000F0C7FB764B00221A80764B1A78754BD1
:101DD0005B789A4212D1744B64221A70724B0022C3
:101DE0005A80724A0F2172480DF0A8FF4FF6FF7318
:101DF00006227049604809F01CFC08E3694B5B78D7
:101E0000694A68499B000B445B681360654B5B78CB
:101E10000133644A927893FBF2F101FB02F29B1AC0
:101E2000DAB2604B5A70644A0F2161480DF086FFA8
:101E3000EDE2504B1B78462B3DD14E4B5B78572B38
:101E400003D04C4B5B78532B35D14A4B9B782D2BD1
:101E500005D1484BDB782D2B01D1012300E0002375
:101E6000DAB2464B1A70434B5B78532B14BF0123F5
:101E70000023DBB21A46514B1A704A4B1B78494A71
:101E80009B00134401221A71464B1B787A6A91B267
:101E9000444A9B0013440A46DA80424B1B780133C4
:101EA000404A927893FBF2F101FB02F29B1ADAB2FC
:101EB0003C4B1A70ABE22F4B1B78422B3DD12D4B84
:101EC0005B78572B03D02B4B5B78532B35D1294BA9
:101ED0009B782D2B05D1274BDB782D2B01D10123AE
:101EE00000E00023DAB2254B1A70224B5B78532BAB
:101EF00014BF01230023DBB21A46304B1A70294B62
:101F00001B78284A9B00134402221A71254B1B7828
:101F10007A6A91B2234A9B0013440A46DA80214B25
:101F20001B7801331F4A927893FBF2F101FB02F216
:101F30009B1ADAB21B4B1A7069E20E4B1B78462BC8
:101F40005DD10C4B5B784C2B59D10A4B9B782D2BD8
:101F500005D1084BDB782D2B01D1012300E00023B4
:101F6000DAB2064B1A70054B1B78002B28D00321E0
:101F700027E000BF44060020C80500209806002086
:101F8000800500203401002035010020A00600203B
:101F9000A6060020D0060020BC060020E406002093
:101FA000B406002050060020840600206C2D010895
:101FB00088060020742D01087C2D010836010020C0
:101FC00007218D4B1B788C4A9B0013440A461A71DB
:101FD000894B1B787A6A91B2874A9B0013440A4660
:101FE000DA80854B1B780133834A927893FBF2F1B8
:101FF00001FB02F29B1ADAB27F4B1A7007E27F4BA9
:102000001B78462B36D17D4B5B78522B32D17B4BE4
:102010009B782D2B05D1794BDB782D2B01D101231A
:1020200000E00023DAB2764B1A70754B1B78002B58
:1020300001D0042100E008216F4B1B786E4A9B0001
:1020400013440A461A716C4B1B787A6A91B26A4A39
:102050009B0013440A46DA80674B1B780133664ABB
:10206000927893FBF2F101FB02F29B1ADAB2624B17
:102070001A70CCE1614B1B78422B36D15F4B5B78F9
:102080004C2B32D15D4B9B782D2B05D15B4BDB78F4
:102090002D2B01D1012300E00023DAB2584B1A7036
:1020A000574B1B78002B01D0052100E00921524B32
:1020B0001B78514A9B0013440A461A714E4B1B78F9
:1020C0007A6A91B24C4A9B0013440A46DA804A4B22
:1020D0001B780133484A927893FBF2F101FB02F23C
:1020E0009B1ADAB2444B1A7091E1444B1B78422B95
:1020F00036D1424B5B78522B32D1404B9B782D2B03
:1021000005D13E4BDB782D2B01D1012300E00023CC
:10211000DAB23B4B1A703A4B1B78002B01D00621E8
:1021200000E00A21344B1B78334A9B0013440A46D3
:102130001A71314B1B787A6A91B22F4A9B00134473
:102140000A46DA802C4B1B7801332B4A927893FB9A
:10215000F2F101FB02F29B1ADAB2274B1A7056E138
:10216000264B1B78542B21D1244B5B784C2B1DD153
:10217000214B1B78204A9B0013440B221A711E4BE3
:102180001B787A6A91B21C4A9B0013440A46DA8093
:10219000194B1B780133184A927893FBF2F101FB3B
:1021A00002F29B1ADAB2144B1A7030E1134B1B780F
:1021B000542B27D1114B5B78522B23D10E4B1B781C
:1021C0000D4A9B0013440C221A710B4B1B787A6A40
:1021D00091B2094A9B0013440A46DA80064B1B78E9
:1021E0000133054A927893FBF2F101FB02F29B1A4C
:1021F000DAB2014B1A700AE15006002044060020B2
:10220000980600206F4B1B78492B21D16D4B5B78D2
:10221000522B1DD16C4B1B786B4A9B0013440D2233
:102220001A71694B1B787A6A91B2674A9B00134412
:102230000A46DA80644B1B780133634A927893FB39
:10224000F2F101FB02F29B1ADAB25F4B1A70DEE088
:102250005C4B1B78442B21D15A4B5B78542B1DD1FE
:10226000594B1B78584A9B0013440E221A71564B47
:102270001B787A6A91B2544A9B0013440A46DA806A
:10228000514B1B780133504A927893FBF2F101FBDA
:1022900002F29B1ADAB24C4B1A70B8E0494B1B7829
:1022A0005A2B21D1474B5B785A2B1DD1464B1B78BB
:1022B000454A9B0013440F221A71434B1B787A6ADC
:1022C00091B2414A9B0013440A46DA803E4B1B7888
:1022D00001333D4A927893FBF2F101FB02F29B1A23
:1022E000DAB2394B1A7092E0364B1B78572B21D15A
:1022F000344B5B78582B1DD1334B1B78324A9B00F3
:10230000134410221A71304B1B787A6A91B22E4A0C
:102310009B0013440A46DA802B4B1B7801332A4A70
:10232000927893FBF2F101FB02F29B1ADAB2264B90
:102330001A706CE0234B1B78572B21D1214B5B7813
:102340004E2B1DD1204B1B781F4A9B00134411229A
:102350001A711D4B1B787A6A91B21B4A9B00134479
:102360000A46DA80184B1B780133174A927893FBA0
:10237000F2F101FB02F29B1ADAB2134B1A7046E03B
:10238000104B1B78412B21D10F4B1B780E4A9B0021
:10239000134458221A710C4B1B787A6A91B20A4A7C
:1023A0009B0013440A46DA80074B1B780133064A28
:1023B000927893FBF2F101FB02F29B1ADAB2024B24
:1023C0001A7024E04406002050060020454B1B787C
:1023D000432B1CD1444B1B78434A9B001344592286
:1023E0001A71414B1B787A6A91B23F4A9B001344A1
:1023F0000A46DA803C4B1B7801333B4A927893FBC8
:10240000F2F101FB02F29B1ADAB2374B1A70364B2B
:102410001A78354B5B789A4219D0334B5B78334A44
:1024200031499B000B445B6813602F4B5B78013391
:102430002D4A927893FBF2F101FB02F29B1ADAB279
:10244000294B5A702A4A0F212A480DF077FC2A4B53
:102450001B685B68294B1B781A462249264809F0FD
:102460007AF9204B1B7887F823301E4B5B7887F86E
:1024700022301C4B9B782D2B08D11A4BDB78312B4B
:1024800004D11F4B4FF0FF321A600DE0154B5B88F3
:10249000BB830023BB7707F11C0318460CF0ACFE8E
:1024A00003461A46164B1A60164A97F823301370E3
:1024B000154A97F822301370134B1B781A46104BAD
:1024C0001B6807F1080011490DF06CFC07F10803C7
:1024D0001A460A21002004F04BF800BF2837BD46F9
:1024E00080BD00BF44060020500600208406002066
:1024F0007C2D010888060020C8050020000000206F
:10250000380700203D0700203C070020842D0108EB
:1025100080B485B000AFF86087ED020AC7ED010A0C
:1025200087ED001AFB68BA681A60FB687A685A601F
:10253000FB683A689A60FB684FF00002DA60FB685B
:102540004FF000021A6100BF1437BD465DF8047BEE
:10255000704780B483B000AF78607B684FF00002B2
:10256000DA607B684FF000021A6100BF0C37BD468D
:102570005DF8047B7047000080B586B004AF034669
:10258000FB714FF6FF73029302230193A94B009353
:1025900001233722D021A84806F07CF8A54B1B78F0
:1025A0001B021AB2A34B5B781BB213431AB2A34BA4
:1025B0001A80A34B1B681B6803F01003102B01D17A
:1025C000012201E04FF0FF329E4B1A709B4BB3F992
:1025D000003013F1040F04DB984BB3F900300B2BE0
:1025E00007DD964BB3F9003007EE903AF8EEE77A44
:1025F00001E0DFED957A954B93ED007A77EE877ADF
:10260000924BC3ED007AFB79002B64D1904B93ED94
:10261000007A8E4BD3ED007A27EE277A8C4BD3EDE0
:10262000016A8B4BD3ED047A66EEA77A37EE277AF0
:10263000874BD3ED026A864B93ED036A834BD3ED50
:10264000007A76EE677A66EEA77A77EE277AFDEE65
:10265000E77A17EE902A7F4B1A607C4B1B687C4A06
:10266000D3607B4B93ED047A784BD3ED007A77EE11
:10267000277A774BC3ED047A764B1B68B3F5167F48
:1026800006DC744B1B68744A9342B8BF134601E0E2
:102690004FF416736F4A13606A4B93F900309AB285
:1026A0006C4B1B689BB212FB03F39BB203F5966362
:1026B0009AB26A4B1A80634B93F900309AB2654B19
:1026C0001B689BB212FB03F39BB2C3F596639AB2ED
:1026D000634B1A80EFE0FB79022B65D1614B93EDE0
:1026E000007A5A4BD3ED007A27EE277A5D4BD3ED73
:1026F000016A5C4BD3ED047A66EEA77A37EE277A4F
:10270000584BD3ED026A574B93ED036A4F4BD3ED11
:10271000007A76EE677A66EEA77A77EE277AFDEE94
:10272000E77A17EE902A4B4B1A60484B1B684D4ACC
:10273000D3604C4B93ED047A444BD3ED007A77EEA3
:10274000277A484BC3ED047A424B1B68B3F52F7FC1
:1027500006DC404B1B68444A9342B8BF134601E075
:102760004FF42F733B4A1360364B93F900309AB203
:10277000384B1B689BB212FB03F39BB203F6B833D2
:102780009AB2364B1A802F4B93F900309AB2314BE4
:102790001B689BB212FB03F39BB2C3F53B63083388
:1027A0009AB22F4B1A8086E0FB79012B40F0838090
:1027B0002E4B93ED007A254BD3ED007A27EE277A46
:1027C0002A4BD3ED016A294BD3ED047A66EEA77A42
:1027D00037EE277A254BD3ED026A244B93ED036A3B
:1027E0001A4BD3ED007A76EE677A66EEA77A77EE2B
:1027F000277AFDEEE77A17EE902A164B1A60134BF4
:102800001B681A4AD360194B93ED047A0F4BD3ED32
:10281000007A77EE277A154BC3ED047A0D4B1B68CF
:10282000B3F52F7F24DC0B4B1B680F4A9342B8BFD4
:1028300013461FE0A4060020C4030020A6060020C3
:10284000600400203E01002000000000A0060020DF
:10285000D006002048070020A8FDFFFFA8060020A2
:10286000AA060020E406002044FDFFFFBC0600206D
:102870004FF42F73174A1360174B93F900309AB235
:10288000144B1B689BB212FB03F39BB203F6FC03D1
:102890009AB2124B1A80104B93F900309AB20D4B3A
:1028A0001B689BB212FB03F39BB2C3F50F630C339F
:1028B0009AB20B4B1A80094B1A880A4B1B685A6351
:1028C000074B1A88074B1B689A6300BF0837BD4641
:1028D00080BD00BF480700203E010020A806002060
:1028E000AA0600208005002080B586B004AF03460C
:1028F0003960FB714FF6FF730293022301939B4BE8
:10290000009301233722D021994805F0C3FE974B4D
:102910001B781B021AB2954B5B781BB213431AB299
:10292000944B1A80944B1B681B6803F01003102B08
:1029300001D1012201E04FF0FF32904B1A708D4B14
:10294000B3F9003013F1040F04DB8A4BB3F9003004
:102950000B2B07DD874BB3F9003007EE903AF8EE0A
:10296000E77A01E0DFED867A864B93ED007A77EE29
:10297000877A844BC3ED007AFB79012B65D1824BBA
:1029800093ED007A7F4BD3ED007A27EE277A7E4BCA
:10299000D3ED016A7C4BD3ED047A66EEA77A37EE6D
:1029A000277A794BD3ED026A774B93ED036A754B27
:1029B000D3ED007A76EE677A66EEA77A77EE277A1D
:1029C000FDEEE77A17EE902A704B1A606D4B1B688C
:1029D0006D4AD3606C4B93ED047A6A4BD3ED007A69
:1029E00077EE277A684BC3ED047A684B1B68B3F522
:1029F0002F7F06DC654B1B68654A9342B8BF1346C0
:102A000001E04FF42F73614A13605C4B93F900307F
:102A10009AB25E4B1B689BB212FB03F39BB203F6A8
:102A2000FC039AB25B4B1A80544B93F900309AB274
:102A3000564B1B689BB212FB03F39BB2C3F50F63AB
:102A40000C339AB2544B1A8067E0FB79022B64D1A5
:102A5000524B93ED007A4B4BD3ED007A27EE277A59
:102A60004E4BD3ED016A4D4BD3ED047A66EEA77A57
:102A700037EE277A494BD3ED026A484B93ED036A50
:102A8000404BD3ED007A76EE677A66EEA77A77EE62
:102A9000277AFDEEE77A17EE902A3C4B1A60394B05
:102AA0001B683E4AD3603D4B93ED047A354BD3ED22
:102AB000007A77EE277A394BC3ED047A334B1B68E3
:102AC000B3F52F7F06DC314B1B68314A9342B8BF08
:102AD000134601E04FF42F732C4A1360274B93F9F0
:102AE00000309AB2294B1B689BB212FB03F39BB2D6
:102AF00003F6B8339AB2274B1A80204B93F9003073
:102B00009AB2224B1B689BB212FB03F39BB2C3F534
:102B10003B6308339AB2204B1A801E4B1B8807EE8A
:102B2000903AB8EEE77A3B68D3ED007A67EE277A01
:102B30001B4B1B68FCEEE77A17EE902A5A63164B84
:102B40001B8807EE903AB8EEE77A3B68D3ED007A3F
:102B500067EE277A124B1B68FCEEE77A17EE902A95
:102B60009A6300BF0837BD4680BD00BFA4060020A1
:102B7000C4030020A6060020600400203E010020BF
:102B800000000000A0060020BC060020480700202E
:102B900044FDFFFFA8060020AA060020E40600204E
:102BA000800500200000000080B584B000AF786090
:102BB0000B46FB701346BB70A14B4FF000021A602E
:102BC000A04B00221A80A048FFF7C3FC9F48FFF7E4
:102BD000C0FC9F48FFF7BDFC9E4B00221A807B681B
:102BE0001B681846FDF7B0FC8FA3D3E90023FDF75F
:102BF00003FD02460B46104619468DA3D3E9002378
:102C0000FDF742FB02460B46104619464FF0000204
:102C1000914BFDF71BFE02460B46104619464FF03E
:102C200000028E4BFDF7E8FC02460B4610461946A3
:102C30004FF000028A4BFDF727FB02460B46104679
:102C40001946FDF7B1FF03469AB2864B1A8004F08D
:102C500021FA0346844A1360FB78002B0CBF012342
:102C60000023DBB21A460421804805F0BBFAFB784A
:102C7000002B14BF01230023DBB21A4608217B4836
:102C800005F0B0FAFB78002B0CBF01230023DBB268
:102C90001A462021754805F0A5FAFB78002B14BFD1
:102CA00001230023DBB21A461021704805F09AFA7E
:102CB0006F4B1B685B6A9AB26E4B1A806C4B1B6839
:102CC0005B6AFB606A4B1B681B6803F01003102BE8
:102CD00017D1684B1B881A46FB68934206D8654B90
:102CE0001A88FB689BB2D31A9BB207E0614B1A8823
:102CF000FB689BB2D31A9BB2013B9BB25E4A138026
:102D000016E05C4B1B881A46FB68934206D3FB68AF
:102D10009AB2584B1B88D31A9BB207E0FB689AB251
:102D2000544B1B88D31A9BB2013B9BB2524A13806F
:102D3000FB689AB24F4B1A80464B1A884E4B1B8841
:102D400013449AB2434B1A80424B1A88454B1B8856
:102D50009A4280F0A88004F09DF90246424B1B681D
:102D6000D31A092BAAD9BB78002B03D10020FFF777
:102D700003FC92E0374B1B881A463A4B1B88D31A48
:102D8000002BB8BF5B423D4A82FB0312D211DB1716
:102D9000D31A07EE903AF8EEE77A394BC3ED007A92
:102DA000BB78012B1ED1364BD3ED007AB7EE007AFB
:102DB000F4EEC77AF1EE10FA02DD4FF07E530EE02A
:102DC0002F4BD3ED007AB6EE087AF4EEC77AF1EE27
:102DD00010FA02D54FF07D5301E0294B1B68284AB9
:102DE000136055E0BB78022B52D1254BD3ED007A0E
:102DF000B7EE007AF4EEC77AF1EE10FA02DD4FF08A
:102E00007E5343E01E4B1B681846FDF79DFB0AA34B
:102E1000D3E90023FDF762FE0346002B34D0194BA3
:102E200034E000BFAFF300802AB266FCAC66F23F2C
:102E3000F82625BBD4E3EE3F9A9999999999D93F01
:102E4000A0060020A6060020D0060020BC06002018
:102E5000E4060020B40600200000344000A09440A6
:102E600000002440B6060020AC060020000002400E
:102E700060040020BA060020B80600206757192118
:102E800038010020CDCCCC3E0D4B1B680C4A1360A2
:102E9000BB780B491846FFF727FD04F0FBF8034603
:102EA000084A13600AE700BF074B1B6800225A63F9
:102EB000054B1B6800229A6300BF1037BD4680BDDA
:102EC00038010020AC060020800500200000000032
:102ED00080B582B000AF78600B46FB70AA4B4FF014
:102EE00000021A60A94B00221A80A948FFF731FBA3
:102EF000A848FFF72EFBA848FFF72BFBA74BA84AD3
:102F00001A600421A74806F087FF04F0C3F80346BF
:102F1000A54A136001221021A44805F063F9A14BD2
:102F20001B6800225A629F4B1B685B6A092BFAD907
:102F3000002210219D4805F055F99A4B1B68DA686C
:102F4000984B1B6842F00402DA600A2009F0ACFCDE
:102F50007B6893ED007A914BD3ED007A77EE677A38
:102F6000FDEEE77A17EE903A002B0EDB7B6893EDCF
:102F7000007A8A4BD3ED007A77EE677AFDEEE77A36
:102F800017EE903A002B40F3E7807B6893ED007AD0
:102F9000824BD3ED007AB4EEE77AF1EE10FA94BFEB
:102FA00001230023DBB283F00103DBB2DBB21A465C
:102FB00004217F4805F016F97B6893ED007A774B82
:102FC000D3ED007AB4EEE77AF1EE10FA94BF012364
:102FD0000023DBB21A460821754805F003F97B6827
:102FE00093ED007A6D4BD3ED007AB4EEE77AF1EE13
:102FF00010FA94BF01230023DBB283F00103DBB29C
:10300000DBB21A4620216A4805F0ECF87B6893EDA4
:10301000007A624BD3ED007AB4EEE77AF1EE10FA63
:1030200094BF01230023DBB21A461021604805F04B
:10303000D9F804F02FF802465B4B1B68D31A132B08
:103040007FF668AFFB78012B3FD1544B93ED007AAC
:103050007B68D3ED007A77EE677AFDEEE77A17EEBC
:10306000903A002BB8BF5B42524A82FB03121A44CB
:10307000D210DB17D31A07EE903AF8EEE77A4E4BF0
:10308000C3ED007A4C4BD3ED007AB7EE007AF4EE44
:10309000C77AF1EE10FA02DD4FF07E530EE0464B98
:1030A000D3ED007AB6EE087AF4EEC77AF1EE10FAB4
:1030B00002D54FF07D5301E03F4B1B683E4A136041
:1030C0003D490120FFF710FC40E0344B93ED007ABE
:1030D0007B68D3ED007A77EE677AFDEEE77A17EE3C
:1030E000903A002BB8BF5B42324A82FB03121A446B
:1030F000D210DB17D31A07EE903AF8EEE77A2E4B90
:10310000C3ED007A2C4BD3ED007AB7EE007AF4EEE3
:10311000C77AF1EE10FA02DD4FF07E5310E0264B35
:103120001B681846FDF710FA15A3D3E90023FDF735
:10313000D5FC0346002B01D0204B01E01E4B1B6841
:103140001D4A13601C490220FFF7CEFB03F0A2FFCB
:103150000346154A1360DDE600BF194B1B680022C9
:103160005A63174B1B6800229A6304210D4806F02E
:103170007BFF00BF0837BD4680BD00BFAFF30080B6
:103180009A9999999999D93FA0060020A6060020FE
:10319000D0060020BC060020E40600200007002026
:1031A00000007A44F0040020AC0600200004024035
:1031B000000002408988888838010020CDCCCC3EB0
:1031C000800500200000000080B582B000AF78606C
:1031D000A14B00221A80A14B00221A60A04BA14AE9
:1031E0001A6003F057FF03469F4A13609F4803F09D
:1031F000C5FF14219D4804F0C6F89C4804F05EFA0F
:103200000246964B1B681344944A1360924B1B88EA
:103210000133974A82FB03125111DA178A1A64218B
:1032200001FB02F29A1A92B28B4B1A808A4B1B88CE
:10323000632B29D1894B1B68874A1288B3FBF2F3B1
:103240001846FDF75FF97EA3D3E90023FDF71CF8CC
:1032500002460B467CA1D1E90001FDF7F7FA0246D0
:103260000B4610461946FDF7BFFC03467C4A136027
:103270007A4B1B68784A1288B3FBF2F39AB27D4B03
:103280001A80764B00221A607B68D3ED007AF5EE47
:10329000C07AF1EE10FA1CDD7B6893ED007A704B7A
:1032A000D3ED007A77EE677AFDEEE77A17EE903A83
:1032B000002B0EDB7B6893ED007A694BD3ED007A2F
:1032C00077EE677AFDEEE77A17EE903A002B40F33F
:1032D000A4807B6893ED007A614BD3ED007AB4EE65
:1032E000E77AF1EE10FA94BF01230023DBB283F0FA
:1032F0000103DBB2DBB21A4604215F4804F072FF1F
:103300007B6893ED007A564BD3ED007AB4EEE77A02
:10331000F1EE10FA94BF01230023DBB21A46082114
:10332000554804F05FFF7B6893ED007A4C4BD3ED7A
:10333000007AB4EEE77AF1EE10FA94BF012300238D
:10334000DBB283F00103DBB2DBB21A4620214A482C
:1033500004F048FF7B6893ED007A414BD3ED007A8F
:10336000B4EEE77AF1EE10FA94BF01230023DBB24A
:103370001A461021404804F035FF03F08BFE024648
:10338000394B1B68D31A092B7FF630AF344B93EDC2
:10339000007A7B68D3ED007A77EE677AFDEEE77A04
:1033A00017EE903A002BB8BF5B42344A82FB0312FF
:1033B0001A44D210DB17D31A07EE903AF8EEE77AE8
:1033C0002F4BC3ED007A2E4BD3ED007AB7EE007A87
:1033D000F4EEC77AF1EE10FA02DD4FF07E5310E002
:1033E000274B1B681846FDF7AFF819A3D3E9002354
:1033F000FDF774FB0346002B01D0224B01E0204B6C
:103400001B681F4A13601E490220FFF76DFA03F084
:1034100041FE0346144A1360E8E600BF1A4B1B68DE
:1034200000225A63184B1B6800229A630F4803F06E
:1034300077FF00BF0837BD4680BD00BFAFF30080F7
:10344000D32357FBC546704066834C32340BD940BA
:10345000333333333333D33F0407002008070020CE
:10346000FC06002000007A44AC0600203403002053
:103470001F85EB51F80600200000024089888888EB
:10348000380100209A99993E800500200000000034
:10349000B0B586B004AF78604B4B4FF000021A60B5
:1034A0004A4B00221A8003F0F5FD0346484A136098
:1034B00003F0F0FD0246464B1B68D31A092BF7D9DF
:1034C0004FF6FF73029302230193424B00930123B3
:1034D0003722D021404805F0DDF83E4B1B781B0217
:1034E0001AB23C4B5B781BB213431AB2374B1A80AB
:1034F000354B1B681846FDF727F804460D46334B3D
:10350000B3F900301846FDF70DF82BA3D3E90023DB
:10351000FDF79CF902460B461046194628A3D3E94D
:103520000023FDF769F802460B4620462946FCF7C2
:10353000ADFE02460B4610461946FDF755FB034605
:10354000214A1360204B93ED007A7B68D3ED007A1B
:1035500077EE677AFDEEE77A17EE903A002B0DDBF7
:10356000194B93ED007A7B68D3ED007A77EE677A9A
:10357000FDEEE77A17EE903A002B05DD03F08AFDA9
:103580000346134A136093E700BF144B1B680022E5
:103590005A63124B1B6800229A63114B1B68462228
:1035A0001A644FF4967003F081FD00BF0837BD46E2
:1035B000B0BD00BFAFF300806666666666663040E9
:1035C0007B14AE47E17A843FA0060020A6060020C7
:1035D000AC060020A4060020C403002080050020C3
:1035E0001804002000000000B0B586B004AF786079
:1035F000494B4FF000021A60484B00221A8003F03A
:1036000049FD0346464A136003F044FD0246444B1D
:103610001B68D31A092BF7D94FF6FF7302930223C5
:103620000193404B009301233722D0213E4805F0FF
:1036300031F83C4B1B781B021AB23A4B5B781BB239
:1036400013431AB2354B1A80334B1B681846FCF7EC
:103650007BFF04460D46314BB3F900301846FCF7AA
:1036600061FF29A3D3E90023FDF7F0F802460B46DA
:103670001046194626A3D3E90023FCF7BDFF0246F6
:103680000B4620462946FCF701FE02460B46104633
:103690001946FDF7A9FA03461F4A13601E4B93ED26
:1036A000007A7B68D3ED007A77EE677AFDEEE77AF1
:1036B00017EE903A002B0DDB174B93ED007A7B68E9
:1036C000D3ED007A77EE677AFDEEE77A17EE903A5F
:1036D000002B05DD03F0DEFC0346114A136093E77F
:1036E00000BF124B1B6800225A63104B1B6800225C
:1036F0009A630F4B1B6846221A64C82003F0D6FC5D
:1037000000BF0837BD46B0BD666666666666304077
:103710007B14AE47E17A843FA0060020A606002075
:10372000AC060020A4060020C40300208005002071
:103730001804002080B500AF164B174A1A60174BCB
:103740001B6873221A644FF4967003F0AFFC0022DA
:103750000421134804F046FD01220821104804F01A
:1037600041FD002220210E4804F03CFD01221021E1
:103770000B4804F037FD0B4B1B6840F6B8325A6318
:10378000084B1B684FF448729A630248FFF780FEAB
:1037900000BF80BD9C0600200000ACC218040020C1
:1037A000000002408005002080B500AF164B174A8C
:1037B0001A60174B1B6873221A644FF4967003F05B
:1037C00075FC00220421134804F00CFD012208219D
:1037D000104804F007FD002220210E4804F002FDED
:1037E000012210210B4804F0FDFC0B4B1B6840F636
:1037F000B8325A63084B1B684FF448729A63024808
:10380000FFF746FE00BF80BD9C060020000030C3CD
:1038100018040020000002408005002080B582B01E
:1038200000AF786000220421254804F0DBFC01226F
:103830000821234804F0D6FC00222021204804F06F
:10384000D1FC012210211E4804F0CCFC7B681B78BF
:10385000012B01D0032B15D11A4B1B4A1A601B4BAD
:103860001B6832221A644FF4967003F01FFC184B49
:103870001B684FF4FA625A63154B1B6840F6AC5252
:103880009A6315E00F4B104A1A60104B1B683422E4
:103890001A644FF4967003F009FC0D4B1B6840F658
:1038A000B8325A630A4B1B6840F6AC529A6300BFA9
:1038B0000448FFF799FE00BF0837BD4680BD00BF32
:1038C000000002409C0600200000A64218040020D0
:1038D0008005002080B582B000AF7860002204210E
:1038E000304804F07FFC012208212E4804F07AFCC5
:1038F000002220212B4804F075FC012210212948C8
:1039000004F070FC7B681B78012B02D0032B16D0CF
:103910002BE0254B254A1A60254B1B6832221A647E
:103920004FF4967003F0C2FB224B1B684FF4FA620F
:103930005A63204B1B6840F6AC529A632BE01A4B3B
:103940001D4A1A601A4B1B6832221A644FF4967093
:1039500003F0ACFB174B1B684FF4FA625A63154B2C
:103960001B6840F6AC529A6315E00F4B134A1A607D
:103970000F4B1B6834221A644FF4967003F096FBC9
:103980000C4B1B6840F6B8325A630A4B1B6840F672
:10399000AC529A6300BF0448FFF726FE00BF083709
:1039A000BD4680BD000002409C0600200000A642EB
:1039B00018040020800500200000AA4200009E425A
:1039C00080B582B000AF786000220421254804F061
:1039D00009FC01220821234804F004FC00222021D4
:1039E000204804F0FFFB012210211E4804F0FAFBDE
:1039F0007B681B78012B01D0032B15D11A4B1B4A76
:103A00001A601B4B1B6873221A644FF4967003F004
:103A10004DFB184B1B6840F6AC525A63154B1B68A4
:103A20004FF4FA629A6315E00F4B134A1A60104B79
:103A30001B6862221A644FF4967003F037FB0D4B3B
:103A40001B6840F6AC525A630A4B1B6840F6A8420A
:103A50009A6300BF0448FFF7C7FD00BF0837BD46A3
:103A600080BD00BF000002409C06002000002CC367
:103A7000180400208005002000002AC30000000078
:103A800080B500AF464B4FF000021A60454B4FF037
:103A900000021A60444B00221A8003F0FBFA03462E
:103AA000424A1360424803F069FB1421404803F086
:103AB0006AFC3F4803F002FE02463E4B1B6813447B
:103AC0003C4A13603C4B1B8801333C4A82FB031287
:103AD0005111DA178A1A642101FB02F29A1A92B282
:103AE000354B1A80344B1B88632B29D1314B1B6813
:103AF000314A1288B3FBF2F31846FCF703FD24A306
:103B0000D3E90023FCF7C0FB02460B4622A1D1E912
:103B10000001FCF79BFE02460B4610461946FDF7D6
:103B200063F803461E4A1360224B1B68224A128820
:103B3000B3FBF2F39AB2224B1A801E4B00221A609A
:103B4000174BD3ED007A9FED1F7AF4EEC77AF1EEB2
:103B500010FA10DC03F09EFA0246144B1B68D31ACD
:103B6000092B9FD90220FEF707FD03F093FA0346C5
:103B70000E4A136096E700BF134B1B6800225A637E
:103B8000114B1B6800229A6300BF80BDAFF3008019
:103B9000D32357FBC546704066834C32340BD94063
:103BA000FC060020A0060020A6060020AC0600208F
:103BB0003403002008070020040700201F85EB5174
:103BC000F8060020000020428005002000000000D0
:103BD00080B500AF464B474A1A60474B4FF0000292
:103BE0001A60464B00221A8003F054FA0346444AF6
:103BF0001360444803F0C2FA1421424803F0C3FBA7
:103C0000404803F05BFD02463F4B1B6813443E4AAD
:103C100013603E4B1B8801333D4A82FB0312511156
:103C2000DA178A1A642101FB02F29A1A92B2374B10
:103C30001A80364B1B88632B29D1334B1B68334AC0
:103C40001288B3FBF2F31846FCF75CFC24A3D3E91B
:103C50000023FCF719FB02460B4623A1D1E9000122
:103C6000FCF7F4FD02460B4610461946FCF7BCFF74
:103C700003461F4A1360244B1B68244A1288B3FB77
:103C8000F2F39AB2234B1A801F4B00221A60184B92
:103C9000D3ED007A9FED207AF4EEC77AF1EE10FAB8
:103CA00010D403F0F7F90246154B1B68D31A092B01
:103CB0009FD90220FEF760FC03F0ECF90346104A9E
:103CC000136096E700BF154B1B6800225A63134B25
:103CD0001B6800229A6300BF80BD00BFAFF3008065
:103CE000D32357FBC546704066834C32340BD94012
:103CF000FC06002000007A44A0060020A606002052
:103D0000AC06002034030020080700200407002030
:103D10001F85EB51F806002000002042800500209E
:103D200080B592B000AF7860284B1B781A46284BBC
:103D30001B6807F1340027490CF034F807F134030D
:103D40001A460A21002002F013FC234BB3F870300E
:103D50001A46214BB3F8723007F120001F490CF0CE
:103D600021F807F120031A461E21002002F000FC72
:103D7000194BD3F884301846FCF7E6FB02460B4695
:103D800007F10C0016490CF00DF807F10C031A4668
:103D90003221002002F0ECFB02F076FA114B1B8876
:103DA0001A4607F13403104918460BF0FBFF07F1E0
:103DB00034014FF6FF7307220C4807F03AFC4FF42A
:103DC0007A7008F071FD00BFAEE700BF3C0700202D
:103DD00038070020842D010804000020A02D0108D0
:103DE000AC2D010830070020B42D0108C8050020C3
:103DF00080B582B000AF7860C64B1B78013B632B67
:103E000000F2788201A252F823F000BF9D3F000823
:103E10009D3F0008B93F0008B93F0008B93F0008BE
:103E2000B93F00088541000893410008A1410008FE
:103E3000AF410008BD410008BD410008054200082F
:103E40000D4200081B4200082942000837420008C2
:103E5000F5420008F5420008F5420008F542000866
:103E6000F5420008F5420008F5420008F542000856
:103E7000F5420008F5420008F5420008F542000846
:103E8000F5420008F5420008F5420008F542000836
:103E9000F5420008F5420008F5420008F542000826
:103EA000F5420008F5420008F5420008F542000816
:103EB000F5420008F5420008F5420008F542000806
:103EC000F5420008F5420008F5420008F5420008F6
:103ED000F5420008F5420008F5420008F5420008E6
:103EE000F5420008F5420008F5420008F5420008D6
:103EF000F5420008F5420008F5420008F5420008C6
:103F0000F5420008F5420008F5420008F5420008B5
:103F1000F5420008F5420008F5420008F5420008A5
:103F2000F5420008F5420008F5420008F542000895
:103F3000F5420008F5420008F5420008F542000885
:103F4000F5420008F5420008F5420008F542000875
:103F5000F5420008F5420008F5420008F542000865
:103F6000F5420008F54200084542000845420008B5
:103F7000F5420008F5420008F5420008F542000845
:103F8000F5420008F5420008F5420008F542000835
:103F9000F5420008F5420008F54200085D4B1B7829
:103FA000012B14BF01230023DBB21A465A4B1A70AF
:103FB000584B63221A709EE1564B1B78574A1B01DF
:103FC00013440433D3ED007A9FED557AF4EEC77AAB
:103FD000F1EE10FA01DDDC231CE04E4B1B784F4A5A
:103FE0001B0113440433D3ED007AB2EE047AF4EEED
:103FF000C77AF1EE10FA01D50A230BE0454B1B7886
:10400000464A1B0113440433D3ED007AFCEEE77AF1
:1040100017EE903A434A126813644FF4967003F017
:1040200045F83C4B1B783D4A1B01134408331B6881
:104030003D4A1360374B1B78384A1B0113440C333D
:104040001B78002B0CBF01230023DBB21A4604218E
:10405000364804F0C7F82F4B1B78304A1B01134435
:104060000C331B78002B14BF01230023DBB21A464C
:1040700008212E4804F0B6F8264B1B78274A1B016E
:1040800013440C331B78002B0CBF01230023DBB23D
:104090001A462021254804F0A5F81E4B1B781F4A1C
:1040A0001B0113440C331B78002B14BF0123002386
:1040B000DBB21A4610211D4804F094F8154B1B780A
:1040C000164A1B0113441A88194B1B685A63114B7B
:1040D0001B78124A1B01134402331A88144B1B68C5
:1040E0009A63144B1A78134B5B789A422CD1094B84
:1040F00064221A70074B00225A800F4A0F210F4882
:104100000BF01CFE4FF6FF7306220D490D4807F019
:1041100090FA33E0840600203401002004000020DF
:1041200000005C43180400209C06002000000240B0
:1041300080050020500600206C2D01088806002014
:10414000742D0108C80500206D4B5B786D4A6C49E1
:104150009B000B445B681360694B5B780133684AD2
:10416000927893FBF2F101FB02F29B1ADAB2644BF4
:104170005A70654A0F2165480BF0E0FD614B6322E0
:104180001A70B8E0624B02221A705E4B63221A70FA
:10419000B1E05F4B03221A705A4B63221A70AAE0F7
:1041A0005B4B04221A70574B63221A70A3E0584BE2
:1041B00005221A70534B63221A709CE0514B1B78F6
:1041C0000B2B04D0534B1B68DC221A6403E0514BC9
:1041D0001B680A221A644FF4967002F067FF494B7D
:1041E00064221A70474B00225A804B4A0F214748DD
:1041F0000BF0A4FD4FF6FF7306224849484807F02C
:1042000018FA78E0424B06221A7074E0404B0722FD
:104210001A703C4B63221A706DE03D4B0A221A70F3
:10422000384B63221A7066E0394B08221A70354BFE
:1042300063221A705FE0364B09221A70314B6322F9
:104240001A7058E02F4B1B78582B04D0314B1B6849
:10425000DC221A6403E02F4B1B680A221A644FF415
:10426000967002F023FF002204212E4803F0BAFFCB
:10427000012208212B4803F0B5FF00222021294804
:1042800003F0B0FF01221021264803F0ABFF1D4BC5
:104290001B78582B13D11B4B5B8807EE903AF8EE36
:1042A000677A214BC3ED007A204B1B684FF44872AC
:1042B0005A631E4B1B684FF496629A6313E0114BCE
:1042C0005B885B4207EE903AF8EEE77A164BC3ED57
:1042D000007A164B1B684FF496625A63134B1B68A7
:1042E0004FF448729A63074B63221A700E48FFF727
:1042F000CFF800E000BF642008F0D6FA7CE500BFEC
:1043000050060020840600207C2D0108880600202D
:1043100034010020180400206C2D0108742D0108C0
:10432000C8050020000002409C06002080050020F7
:1043300080B584B000AF78600023FB810023BB60B0
:10434000274B1B78062B04D04FF47A7008F0ACFA98
:10435000F6E7244B63221A70234B244A1A60224842
:10436000FEF732FF224B00221A601D4B1A78214BB8
:104370001A701B4B0B221A701F4B1A781E4B5B785E
:104380009A4212D1174B64221A70164B00225A809F
:104390001A4A0F211A480BF0D1FC4FF6FF73062280
:1043A0001849194807F045F9CAE7134B5B780D4ADD
:1043B00011499B000B445B6813600F4B5B78013322
:1043C0000D4A927893FBF2F101FB02F29B1ADAB2EA
:1043D000094B5A700D4A0F2109480BF0AFFCAFE7AB
:1043E0003401002084060020B00600200000204296
:1043F0004007002035010020500600206C2D0108E8
:1044000088060020742D0108C80500207C2D0108B5
:1044100080B582B000AF7860854B1B78002B08D048
:10442000834B1B78012B04D04FF47A7008F03CFAD0
:10443000FCE0804B1B78002B7ED07F4B4FF00002BE
:104440001A607E4B00221A807D48FEF782F87D4874
:10445000FEF77FF87C48FEF77CF8754B1B78002B45
:1044600014BF01230023DBB21A460421774803F06E
:10447000B9FE6F4B1B78002B0CBF01230023DBB26E
:104480001A460821714803F0ADFE694B1B78002BDA
:1044900014BF01230023DBB21A4620216B4803F02E
:1044A000A1FE634B1B78002B0CBF01230023DBB262
:1044B0001A461021654803F095FE654B1B680022E3
:1044C0005A63634B1B6800229A63594B1A78614BFD
:1044D0001A70574B0B221A705F4B00221A605F4B09
:1044E00064221A705D4B00225A805D4A0F215D489C
:1044F0000BF024FC4FF6FF7306225B495B4807F084
:1045000098F802F0C7FD0346594A1360494B1B78DF
:10451000002B00F08A8002F0BDFD0246544B1B6860
:10452000D31A092BF2D90020FEF726F802F0B2FDCB
:1045300003464F4A1360E9E7484B5B8807EE903A21
:10454000F8EE677A4B4BC3ED007A4A4BD3ED007A15
:10455000B2EE0E7AF4EEC77AF1EE10FA02D8464BBC
:1045600000221A70444B1B78002B0CD1304B1B7867
:10457000002B0CBF01230023DBB2012219463D486A
:10458000FEF712FB0BE02A4B1B78002B0CBF01231C
:104590000023DBB2022219463648FEF705FB2C4BFE
:1045A0001B6800225A632A4B1B6800229A63204B27
:1045B0001A78284B1A701E4B0B221A70264B0022B9
:1045C0001A602E4B1A782D4B5B789A4212D1234BEE
:1045D00064221A70214B00225A80214A0F2121485F
:1045E0000BF0ACFB4FF6FF7306221F491F4807F084
:1045F00020F811E7214B5B78184A20499B000B44B7
:104600005B6813601D4B5B7801331C4A927893FB07
:10461000F2F101FB02F29B1ADAB2184B5A70184AF7
:104620000F2110480BF08AFBF6E600BFF4E600BF4E
:104630003401002098060020A0060020A6060020D5
:10464000D0060020BC060020E40600200000024046
:10465000800500203501002040070020840600204E
:104660006C2D010888060020742D0108C805002063
:10467000AC060020B00600203601002050060020C5
:104680007C2D010800000000B0B588B004AF786050
:104690000023FB73844B1B78082B04D04FF47A70F3
:1046A00008F002F9F6E7814B93F90030002B07D1AF
:1046B0007F4B804A1A6002217D48FEF709FC3CE2EC
:1046C0007A4B93F90030012B40F098810023FB7363
:1046D000794B4FF000021A60784B00221A80784B19
:1046E0004FF000021A60774B774A1A60774B4FF011
:1046F00000021A60764B1B680A221A644FF4967007
:1047000002F0D4FC734B1B684FF416725A63714B62
:104710001B684FF47A729A63002204216E4803F0FA
:1047200061FD012208216C4803F05CFD002220217C
:10473000694803F057FD01221021674803F052FD3C
:104740000421664805F068FB02F0A4FC0346644AB5
:1047500013604FF6FF73029302230193614B0093A2
:1047600001233722D021604803F094FF5D4B1B7872
:104770001B021AB25B4B5B781BB213431AB24F4B4E
:104780001A80FB7B002B1DD101221021574803F01A
:1047900029FD524B1B6800225A62504B1B685B6A12
:1047A000092BFAD900221021504803F01BFD4B4B76
:1047B0001B68DA68494B1B6842F00402DA60052086
:1047C00008F072F802F066FC0246454B1B68D31AEB
:1047D000092BBED9384B1B681846FBF7B5FE0446BB
:1047E0000D46364BB3F900301846FBF79BFE2AA363
:1047F000D3E90023FCF72AF802460B461046194677
:1048000027A3D3E90023FBF7F7FE02460B46204619
:104810002946FBF73BFD02460B4610461946FCF7BE
:10482000E3F90346244A1360284BD3ED007A9FED49
:10483000307AF4EEC77AF1EE10FA08DDFB7B002B3C
:1048400005D11D4B1B681E4A13600123FB731D4BD2
:1048500093ED007A184BD3ED007A77EE677AFDEE90
:10486000E77A17EE903A002B0DDB164B93ED007AAA
:10487000114BD3ED007A77EE677AFDEEE77A17EE0B
:10488000903A002B36DD02F005FC0346144A136013
:104890005FE700BFAFF3008066666666666630401D
:1048A0007B14AE47E17A843F3401002044070020A6
:1048B000B00600200000F041A0060020A60600205F
:1048C000180700209C0600200000B44200070020CA
:1048D000180400208005002000000240F0040020A1
:1048E000AC060020A4060020C403002000040240FF
:1048F00000005C4200BFA24B1B6800225A63A04B21
:104900001B6800229A639F4B1B6846221A644FF46F
:10491000967002F0CBFB0A2007F0C6FF9A4B1B688B
:104920001846FBF711FE94A3D3E90023FBF764FEBE
:1049300002460B46104619464FF00002934BFBF718
:1049400085FF02460B4610461946FCF74DF9034613
:1049500000EE103A0DF04CFCF0EE407AB3EE0E7A19
:1049600067EE877A8A4BC3ED007A894BD3ED007AE4
:104970009FED887A77EE677AF3EE0E6A87EEA67A75
:10498000B0EE470A0DF058FBF0EE407A9FED827AC8
:1049900067EE877A17EE900AFBF7D6FD76A3D3E988
:1049A0000023FBF753FF02460B4610461946FCF75F
:1049B0001BF90346794A1360754BD3ED007A9FEDDE
:1049C000757A37EE677A724BD3ED007ADFED716A54
:1049D00076EEE77A67EE277A9FED717A77EE877A3F
:1049E000B0EE670A0DF00AFBF0EE407AB3EE077AFC
:1049F00077EEC77A6B4BC3ED007A9EE06A4B93F972
:104A00000030022B05D1FFF73BF80A2007F04CFFDE
:104A100093E0654B93F90030032B05D1FEF7C4FEFC
:104A20000A2007F041FF88E05F4B93F90030042B28
:104A300005D1FFF7CDF80A2007F036FF7DE05A4B8D
:104A400093F90030052B05D1FFF71AF80A2007F07B
:104A50002BFF72E0544B93F90030062B05D1FEF783
:104A600069FE0A2007F020FF67E04F4B93F9003002
:104A7000072B05D1FFF704F80A2007F015FF5CE0CB
:104A8000494B93F90030082B1DD13E4B1B68DC22AB
:104A90001A644FF4967002F009FB394B1B684FF40F
:104AA000FA625A63364B1B684FF47A729A633B4B37
:104AB000D3ED007AF1EE677A3C4BC3ED007A3B48C8
:104AC000FEF7E6FC39E0384B93F90030092B09D1A9
:104AD000344B1B68364A1360002201213448FEF72C
:104AE00063F82AE0304B93F900300A2B19D1254B9B
:104AF0001B680A221A644FF4967002F0D7FA204B12
:104B00001B684FF47A725A631D4B1B684FF4FA62AC
:104B10009A63224B1B68254A13602448FEF7B8FCB1
:104B20000BE0214B93F900300B2B06D1204B214A8F
:104B30001A6002211E48FEF7CBF91F4B00221A60B3
:104B40001E4B1A781E4B1A701C4B0B221A701D4BF1
:104B500064221A701B4B00225A801B4A0F211B48EB
:104B60000BF0ECF84FF6FF7306221949194806F0CE
:104B700060FD8FE5AFF3008050455254FB210940A2
:104B800080050020180400201807002000806640DF
:104B90001007002000007042000034431C07002072
:104BA0000000614414070020440700209C060020F8
:104BB000B0060020000070414007002034010020B2
:104BC00035010020840600206C2D01088806002095
:104BD000742D0108C805002080B582B000AF786050
:104BE000314B1B780A2B1CD04FF47A7007F05CFE17
:104BF000F6E701224FF480612C4803F0F3FA6420B9
:104C000007F052FE00224FF48061284803F0EAFAD0
:104C1000642007F049FE264B5B88013B9AB2244B87
:104C20005A80234B5B88002BE3D11F4B1A78214B12
:104C30001A701D4B0B221A701F4B00221A601F4B5B
:104C40001A781E4B5B789A4212D1194B64221A7063
:104C5000174B00225A801A4A0F211A480BF06EF89F
:104C60004FF6FF7306221849184806F0E2FCB7E732
:104C7000124B5B780E4A11499B000B445B68136032
:104C80000E4B5B7801330D4A927893FBF2F101FBF6
:104C900002F29B1ADAB2094B5A700D4A0F210948E9
:104CA0000BF04CF89CE700BF3401002000040240E8
:104CB0008406002035010020400700205006002017
:104CC0006C2D010888060020742D0108C8050020FD
:104CD0007C2D010880B592B000AF7860974B1B78AF
:104CE000022B04D04FF47A7007F0DEFDF6E7944B08
:104CF0005B88142B00F081801E2B40F00781914BC4
:104D0000D3ED3D7A9FED907AF4EEC77AF1EE10FA8A
:104D100001DDDC2312E08B4BD3ED3D7AB2EE047A59
:104D2000F4EEC77AF1EE10FA01D50A2306E0854BBE
:104D3000D3ED3D7AFCEEE77A17EE903A834A12689B
:104D400013644FF4967002F0B1F97E4BD3F8F8304B
:104D50007F4A13607B4B93F8FC30002B0CBF012380
:104D60000023DBB21A4604217A4803F03BFA754B64
:104D700093F8FC30002B14BF01230023DBB21A464A
:104D80000821744803F02EFA6E4B93F8FC30002B88
:104D90000CBF01230023DBB21A4620216D4803F02B
:104DA00021FA684B93F8FC30002B14BF0123002339
:104DB000DBB21A461021674803F014FA614BB3F8CE
:104DC000F020654B1B685A635E4BB3F8F220624BD0
:104DD0001B689A635E48FEF75BFB0A2007F064FDE0
:104DE0005E4B4FF081421A60002200215B48FDF7C4
:104DF000DBFE0A2007F058FD0EE1584B4FF08142D0
:104E00001A60002200215548FDF7CEFE0A2007F067
:104E10004BFD4C4BD3ED2D7A9FED4B7AF4EEC77AD8
:104E2000F1EE10FA01DDDC2312E0464BD3ED2D7AD2
:104E3000B2EE047AF4EEC77AF1EE10FA01D50A2345
:104E400006E0404BD3ED2D7AFCEEE77A17EE903A70
:104E50003E4A126813644FF4967002F027F9394BFA
:104E6000D3F8B8303A4A1360364B93F8BC30002B75
:104E70000CBF01230023DBB21A460421354803F09E
:104E8000B1F9304B93F8BC30002B14BF0123002341
:104E9000DBB21A4608212F4803F0A4F9294B93F8F6
:104EA000BC30002B0CBF01230023DBB21A462021AB
:104EB000284803F097F9234B93F8BC30002B14BF1C
:104EC00001230023DBB21A461021224803F08AF99D
:104ED0001C4BB3F8B020204B1B685A63194BB3F836
:104EE000B2201D4B1B689A631948FEF7D1FA0A20BD
:104EF00007F0DAFC194B1A4A1A6000220021174801
:104F0000FDF752FE0A2007F0CFFC85E00D4BD3EDF4
:104F10001D7A9FED0D7AF4EEC77AF1EE10FA01DDFD
:104F2000DC2326E0074BD3ED1D7AB2EE047AF4EED3
:104F3000C77AF1EE10FA15D50A231AE034010020E1
:104F4000840600200400002000005C4318040020B8
:104F50009C0600200000024080050020B0060020D2
:104F60000000E0404B4BD3ED1D7AFCEEE77A17EEE4
:104F7000903A494A126813644FF4967002F096F81A
:104F8000444B9B6F454A1360424B93F87C30002B97
:104F90000CBF01230023DBB21A460421404803F072
:104FA00021F93C4B93F87C30002B14BF01230023E4
:104FB000DBB21A4608213A4803F014F9354B93F84E
:104FC0007C30002B0CBF01230023DBB21A462021CA
:104FD000334803F007F92F4B93F87C30002B14BFB4
:104FE00001230023DBB21A4610212D4803F0FAF802
:104FF000284BB3F870202B4B1B685A63254BB3F832
:105000007220284B1B689A632448FEF741FA4FF43C
:105010007A7007F049FC00BF234B00221A60234B33
:105020001A78234B1A70214B0B221A70214B1A78D5
:10503000204B5B789A4212D11F4B64221A701E4B90
:1050400000225A801D4A0F211D480AF077FE4FF6B4
:10505000FF7306221B491C4806F0EBFA3EE6154B8F
:105060005B78154A13499B000B445B681360114B36
:105070005B7801330F4A927893FBF2F101FB02F265
:105080009B1ADAB20B4B5A70104A0F210C480AF0E7
:1050900055FE23E604000020180400209C06002092
:1050A000000002408005002040070020340100205D
:1050B0003501002050060020840600206C2D0108D8
:1050C00088060020742D0108C80500207C2D0108E9
:1050D00080B582B000AF7860984B1B78032B04D06A
:1050E0004FF47A7007F0E0FBF6E7954B5B88142BE2
:1050F00000F081801E2B40F00881924BD3ED417A65
:105100009FED917AF4EEC77AF1EE10FA01DDDC231F
:1051100012E08C4BD3ED417AB2EE047AF4EEC77A0A
:10512000F1EE10FA01D50A2306E0864BD3ED417A61
:10513000FCEEE77A17EE903A844A126813644FF453
:10514000967001F0B3FF7F4BD3F80831804A1360AB
:105150007C4B93F80C31002B0CBF01230023DBB2F6
:105160001A4604217B4803F03DF8764B93F80C3146
:10517000002B14BF01230023DBB21A460821754817
:1051800003F030F86F4B93F80C31002B0CBF012368
:105190000023DBB21A4620216E4803F023F8694B46
:1051A00093F80C31002B14BF01230023DBB21A4605
:1051B0001021684803F016F8624BB3F80021664BE3
:1051C0001B685A635F4BB3F80221634B1B689A63F9
:1051D0005F48FEF75DF90A2007F066FB5F4B4FF072
:1051E00081421A60002200215C48FDF7DDFC0A20A4
:1051F00007F05AFB0EE1594B4FF081421A60002232
:1052000000215648FDF7D0FC0A2007F04DFB4D4B1E
:10521000D3ED317A9FED4C7AF4EEC77AF1EE10FAC5
:1052200001DDDC2312E0474BD3ED317AB2EE047A94
:10523000F4EEC77AF1EE10FA01D50A2306E0414BED
:10524000D3ED317AFCEEE77A17EE903A3F4A1268D6
:1052500013644FF4967001F029FF3A4BD3F8C8302D
:105260003B4A1360374B93F8CC30002B0CBF012323
:105270000023DBB21A460421364802F0B3FF314B5B
:1052800093F8CC30002B14BF01230023DBB21A4665
:105290000821304802F0A6FF2A4B93F8CC30002BAF
:1052A0000CBF01230023DBB21A462021294802F05B
:1052B00099FF244B93F8CC30002B14BF012300231B
:1052C000DBB21A461021234802F08CFF1D4BB3F8C5
:1052D000C020214B1B685A631A4BB3F8C2201E4BE7
:1052E0001B689A631A48FEF7D3F80A2007F0DCFA25
:1052F0001A4B4FF082421A60002200211748FDF736
:1053000053FC0A2007F0D0FA84E00E4BD3ED217A4B
:105310009FED0D7AF4EEC77AF1EE10FA01DDDC2391
:1053200025E0084BD3ED217AB2EE047AF4EEC77A89
:10533000F1EE10FA14D50A2319E000BF3401002061
:10534000840600200400002000005C4318040020B4
:105350009C0600200000024080050020B0060020CE
:105360004B4BD3ED217AFCEEE77A17EE903A494A9F
:10537000126813644FF4967001F098FE444BD3F812
:105380008830454A1360424B93F88C30002B0CBF99
:1053900001230023DBB21A460421404802F022FF19
:1053A0003B4B93F88C30002B14BF01230023DBB25E
:1053B0001A460821394802F015FF354B93F88C3016
:1053C000002B0CBF01230023DBB21A4620213348F7
:1053D00002F008FF2E4B93F88C30002B14BF0123F2
:1053E0000023DBB21A4610212C4802F0FBFE284BAA
:1053F000B3F880202A4B1B685A63254BB3F88220F0
:10540000274B1B689A632448FEF742F80A2007F0EE
:105410004BFA00BF234B00221A60234B1A78234B10
:105420001A70214B0B221A70214B1A78204B5B7893
:105430009A4212D11F4B64221A701E4B00225A80CE
:105440001D4A0F211D480AF079FC4FF6FF73062212
:105450001B491C4806F0EDF83EE6154B5B78154AF3
:1054600013499B000B445B681360114B5B7801335D
:105470000F4A927893FBF2F101FB02F29B1ADAB227
:105480000B4B5A70104A0F210C480AF057FC23E6C8
:1054900004000020180400209C06002000000240A8
:1054A0008005002040070020340100203501002045
:1054B00050060020840600206C2D0108880600207C
:1054C000742D0108C80500207C2D010880B582B02C
:1054D00000AF7860964B1B78042B04D04FF47A70A1
:1054E00007F0E2F9F6E7934B5B88142B7FD01E2B75
:1054F00040F00681904BD3ED457A9FED907AF4EE23
:10550000C77AF1EE10FA01DDDC2312E08A4BD3ED0D
:10551000457AB2EE047AF4EEC77AF1EE10FA01D5CC
:105520000A2306E0844BD3ED457AFCEEE77A17EECA
:10553000903A834A126813644FF4967001F0B6FDF6
:105540007D4BD3F818317F4A13607B4B93F81C31A5
:10555000002B0CBF01230023DBB21A4604217A483A
:1055600002F040FE744B93F81C31002B14BF012352
:105570000023DBB21A460821734802F033FE6E4B5B
:1055800093F81C31002B0CBF01230023DBB21A4619
:1055900020216D4802F026FE674B93F81C31002B4A
:1055A00014BF01230023DBB21A461021664802F023
:1055B00019FE614BB3F81021644B1B685A635E4BB4
:1055C000B3F81221614B1B689A635E48FDF760FFD8
:1055D0000A2007F069F95E4B5E4A1A60002200213A
:1055E0005B48FDF7E1FA0A2007F05EF910E1584B3D
:1055F000594A1A60002201215548FDF7D5FA0A20C0
:1056000007F052F94C4BD3ED357A9FED4C7AF4EE1E
:10561000C77AF1EE10FA01DDDC2312E0464BD3ED40
:10562000357AB2EE047AF4EEC77AF1EE10FA01D5CB
:105630000A2306E0404BD3ED357AFCEEE77A17EE0D
:10564000903A3F4A126813644FF4967001F02EFDB1
:10565000394BD3F8D8303B4A1360374B93F8DC30E2
:10566000002B0CBF01230023DBB21A46042136486D
:1056700002F0B8FD304B93F8DC30002B14BF01234F
:105680000023DBB21A4608212F4802F0ABFD2A4B5B
:1056900093F8DC30002B0CBF01230023DBB21A4649
:1056A0002021294802F09EFD234B93F8DC30002B8B
:1056B00014BF01230023DBB21A461021224802F056
:1056C00091FD1D4BB3F8D020204B1B685A631A4B39
:1056D000B3F8D2201D4B1B689A631A48FDF7D8FE19
:1056E0000A2007F0E1F81A4B4FF080421A600022BE
:1056F00001211748FDF758FA0A2007F0D5F887E08E
:105700000D4BD3ED257A9FED0D7AF4EEC77AF1EECD
:1057100010FA01DDDC2328E0074BD3ED257AB2EE49
:10572000047AF4EEC77AF1EE10FA17D50A231CE0DA
:1057300034010020840600200400002000005C43A7
:10574000180400209C060020000002408005002074
:10575000B0060020000090400000C0404B4BD3ED4D
:10576000257AFCEEE77A17EE903A494A12681364FC
:105770004FF4967001F09AFC444BD3F89830454AA8
:105780001360424B93F89C30002B0CBF0123002385
:10579000DBB21A460421404802F024FD3B4B93F84B
:1057A0009C30002B14BF01230023DBB21A460821D2
:1057B000394802F017FD354B93F89C30002B0CBF95
:1057C00001230023DBB21A462021334802F00AFDF0
:1057D0002E4B93F89C30002B14BF01230023DBB227
:1057E0001A4610212C4802F0FDFC284BB3F89020FB
:1057F0002A4B1B685A63254BB3F89220274B1B6832
:105800009A632448FDF744FE0A2007F04DF800BFD4
:10581000234B00221A60234B1A78234B1A70214B1A
:105820000B221A70214B1A78204B5B789A4212D1C6
:105830001F4B64221A701E4B00225A801D4A0F21F2
:105840001D480AF07BFA4FF6FF7306221B491C48DD
:1058500005F0EFFE3EE6154B5B78154A13499B00B9
:105860000B445B681360114B5B7801330F4A9278ED
:1058700093FBF2F101FB02F29B1ADAB20B4B5A7066
:10588000104A0F210C480AF059FA23E604000020C0
:10589000180400209C060020000002408005002023
:1058A0004007002034010020350100205006002070
:1058B000840600206C2D010888060020742D010844
:1058C000C80500207C2D010880B582B000AF78604B
:1058D000964B1B78052B04D04FF47A7006F0E4FF4A
:1058E000F6E7934B5B88142B7FD01E2B40F005818D
:1058F000904BD3ED497A9FED907AF4EEC77AF1EEB2
:1059000010FA01DDDC2312E08A4BD3ED497AB2EEC6
:10591000047AF4EEC77AF1EE10FA01D50A2306E014
:10592000844BD3ED497AFCEEE77A17EE903A834A3E
:10593000126813644FF4967001F0B8FB7D4BD3F8F6
:1059400028317F4A13607B4B93F82C31002B0CBF1E
:1059500001230023DBB21A4604217A4802F042FCFC
:10596000744B93F82C31002B14BF01230023DBB2BE
:105970001A460821734802F035FC6E4B93F82C311F
:10598000002B0CBF01230023DBB21A4620216D48F7
:1059900002F028FC674B93F82C31002B14BF012335
:1059A0000023DBB21A461021664802F01BFC614B53
:1059B000B3F82021644B1B685A635E4BB3F8222175
:1059C000614B1B689A635E48FDF762FD0A2006F092
:1059D0006BFF5E4B5E4A1A60002200215B48FDF7B8
:1059E000E3F80A2006F060FF12E1584B594A1A60AA
:1059F000002201215548FDF7D7F80A2006F054FF90
:105A00004C4BD3ED397A9FED4C7AF4EEC77AF1EE38
:105A100010FA01DDDC2312E0464BD3ED397AB2EE09
:105A2000047AF4EEC77AF1EE10FA01D50A2306E003
:105A3000404BD3ED397AFCEEE77A17EE903A3F4AC5
:105A4000126813644FF4967001F030FB394BD3F8B1
:105A5000E8303B4A1360374B93F8EC30002B0CBF17
:105A600001230023DBB21A460421364802F0BAFBB8
:105A7000304B93F8EC30002B14BF01230023DBB232
:105A80001A4608212F4802F0ADFB2A4B93F8EC3060
:105A9000002B0CBF01230023DBB21A46202129482A
:105AA00002F0A0FB234B93F8EC30002B14BF012332
:105AB0000023DBB21A461021224802F093FB1D4B53
:105AC000B3F8E020204B1B685A631A4BB3F8E2206E
:105AD0001D4B1B689A631A48FDF7DAFC0A2006F092
